{
  "_format": "hh-sol-artifact-1",
  "contractName": "Lottery",
  "sourceName": "contracts/Lottery.sol",
  "abi": [
    {
      "inputs": [],
      "stateMutability": "nonpayable",
      "type": "constructor"
    },
    {
      "inputs": [],
      "name": "getBalance",
      "outputs": [
        {
          "internalType": "uint256",
          "name": "",
          "type": "uint256"
        }
      ],
      "stateMutability": "view",
      "type": "function"
    },
    {
      "inputs": [],
      "name": "getWinner",
      "outputs": [],
      "stateMutability": "nonpayable",
      "type": "function"
    },
    {
      "inputs": [],
      "name": "manager",
      "outputs": [
        {
          "internalType": "address",
          "name": "",
          "type": "address"
        }
      ],
      "stateMutability": "view",
      "type": "function"
    },
    {
      "inputs": [],
      "name": "partCount",
      "outputs": [
        {
          "internalType": "uint256",
          "name": "",
          "type": "uint256"
        }
      ],
      "stateMutability": "view",
      "type": "function"
    },
    {
      "inputs": [
        {
          "internalType": "uint256",
          "name": "",
          "type": "uint256"
        }
      ],
      "name": "players",
      "outputs": [
        {
          "internalType": "address",
          "name": "",
          "type": "address"
        }
      ],
      "stateMutability": "view",
      "type": "function"
    },
    {
      "inputs": [],
      "name": "receiveEth",
      "outputs": [],
      "stateMutability": "payable",
      "type": "function"
    }
  ],
  "bytecode": "0x608060405234801561001057600080fd5b50336000806101000a81548173ffffffffffffffffffffffffffffffffffffffff021916908373ffffffffffffffffffffffffffffffffffffffff160217905550610a2f806100606000396000f3fe6080604052600436106100555760003560e01c806312065fe01461005a5780634185f8eb14610085578063481c6a751461008f5780638e7ea5b2146100ba57806390e3d327146100d1578063f71d96cb146100fc575b600080fd5b34801561006657600080fd5b5061006f610139565b60405161007c9190610599565b60405180910390f35b61008d610141565b005b34801561009b57600080fd5b506100a46101f0565b6040516100b191906105f5565b60405180910390f35b3480156100c657600080fd5b506100cf610214565b005b3480156100dd57600080fd5b506100e6610457565b6040516100f39190610599565b60405180910390f35b34801561010857600080fd5b50610123600480360381019061011e9190610641565b610464565b60405161013091906105f5565b60405180910390f35b600047905090565b662386f26fc1000034101561018b576040517f08c379a0000000000000000000000000000000000000000000000000000000008152600401610182906106cb565b60405180910390fd5b6001339080600181540180825580915050600190039060005260206000200160009091909190916101000a81548173ffffffffffffffffffffffffffffffffffffffff021916908373ffffffffffffffffffffffffffffffffffffffff160217905550565b60008054906101000a900473ffffffffffffffffffffffffffffffffffffffff1681565b60008054906101000a900473ffffffffffffffffffffffffffffffffffffffff1673ffffffffffffffffffffffffffffffffffffffff163373ffffffffffffffffffffffffffffffffffffffff16146102a2576040517f08c379a000000000000000000000000000000000000000000000000000000000815260040161029990610737565b60405180910390fd5b6000600180549050116102ea576040517f08c379a00000000000000000000000000000000000000000000000000000000081526004016102e1906107a3565b60405180910390fd5b60006001805490506102fa6104a3565b61030491906107f2565b905060006001828154811061031c5761031b610823565b5b9060005260206000200160009054906101000a900473ffffffffffffffffffffffffffffffffffffffff1690506002819080600181540180825580915050600190039060005260206000200160009091909190916101000a81548173ffffffffffffffffffffffffffffffffffffffff021916908373ffffffffffffffffffffffffffffffffffffffff1602179055508073ffffffffffffffffffffffffffffffffffffffff166108fc479081150290604051600060405180830381858888f193505050501580156103f2573d6000803e3d6000fd5b50600067ffffffffffffffff81111561040e5761040d610852565b5b60405190808252806020026020018201604052801561043c5781602001602082028036833780820191505090505b50600190805190602001906104529291906104d9565b505050565b6000600180549050905090565b6001818154811061047457600080fd5b906000526020600020016000915054906101000a900473ffffffffffffffffffffffffffffffffffffffff1681565b6000444260016040516020016104bb939291906109c0565b6040516020818303038152906040528051906020012060001c905090565b828054828255906000526020600020908101928215610552579160200282015b828111156105515782518260006101000a81548173ffffffffffffffffffffffffffffffffffffffff021916908373ffffffffffffffffffffffffffffffffffffffff160217905550916020019190600101906104f9565b5b50905061055f9190610563565b5090565b5b8082111561057c576000816000905550600101610564565b5090565b6000819050919050565b61059381610580565b82525050565b60006020820190506105ae600083018461058a565b92915050565b600073ffffffffffffffffffffffffffffffffffffffff82169050919050565b60006105df826105b4565b9050919050565b6105ef816105d4565b82525050565b600060208201905061060a60008301846105e6565b92915050565b600080fd5b61061e81610580565b811461062957600080fd5b50565b60008135905061063b81610615565b92915050565b60006020828403121561065757610656610610565b5b60006106658482850161062c565b91505092915050565b600082825260208201905092915050565b7f53656e64206d6f7265207468616e20302e303120657468657273000000000000600082015250565b60006106b5601a8361066e565b91506106c08261067f565b602082019050919050565b600060208201905081810360008301526106e4816106a8565b9050919050565b7f41636365737320746f204d616e61676572204f6e6c7921210000000000000000600082015250565b600061072160188361066e565b915061072c826106eb565b602082019050919050565b6000602082019050818103600083015261075081610714565b9050919050565b7f506c617965727320636f756e7420697320300000000000000000000000000000600082015250565b600061078d60128361066e565b915061079882610757565b602082019050919050565b600060208201905081810360008301526107bc81610780565b9050919050565b7f4e487b7100000000000000000000000000000000000000000000000000000000600052601260045260246000fd5b60006107fd82610580565b915061080883610580565b925082610818576108176107c3565b5b828206905092915050565b7f4e487b7100000000000000000000000000000000000000000000000000000000600052603260045260246000fd5b7f4e487b7100000000000000000000000000000000000000000000000000000000600052604160045260246000fd5b6000819050919050565b61089c61089782610580565b610881565b82525050565b600081549050919050565b600081905092915050565b60008190508160005260206000209050919050565b6108d6816105d4565b82525050565b60006108e883836108cd565b60208301905092915050565b60008160001c9050919050565b600073ffffffffffffffffffffffffffffffffffffffff82169050919050565b600061093461092f836108f4565b610901565b9050919050565b60006109478254610921565b9050919050565b6000600182019050919050565b6000610966826108a2565b61097081856108ad565b935061097b836108b8565b8060005b838110156109b3576109908261093b565b61099a88826108dc565b97506109a58361094e565b92505060018101905061097f565b5085935050505092915050565b60006109cc828661088b565b6020820191506109dc828561088b565b6020820191506109ec828461095b565b915081905094935050505056fea2646970667358221220a1e130115dc5f1688d5baa2f4358a0986bd975fe7e713a09feeee4c259c9db6e64736f6c63430008110033",
  "linkReferences": {},
  "deployedLinkReferences": {}
}